:100000000C94A00F0C94C80F0C94C80F0C94C80F3C
:100010000C94C80F0C94C80F0C94C80F0C94C80F04
:100020000C94C80F0C94C80F0C941A160C948C16D0
:100030000C94C80F0C94C80F0C94C80F0C94C80FE4
:100040000C94C80F0C94C80F0C94C80F0C94C80FD4
:100050000C94C80F0C94C80F0C94C80F0C94E8278C
:100060000C94C80F0C94C80F0C94C80F0C94C80FB4
:100070000C94C80F0C94C80F0C94C80F0C94C80FA4
:100080000C94C80F0C94C80F0C94C80F0C94C80F94
:100090000C94321E0C94C80F0C94C80F0C94C80F0B
:1000A0000C94C80F0C94C80F0C94C80F58155B150E
:1000B0004A154E1554157C157C157C155F15631576
:1000C00067156D1571157C157715556E6465722F62
:1000D0004F76657220766F6C746167650052544488
:1000E000494E2D203C20302E383520782042696141
:1000F00073202D20464F5243452D206F70656E00B2
:10010000524546494E2D203C20302E38352078204F
:1001100042696173202D20464F5243452D206F7058
:10012000656E00524546494E2D203E20302E383512
:100130002078204269617300525444204C6F77202C
:100140005468726573686F6C640052544420486947
:100150006768205468726573686F6C640023203090
:1001600078004572726575722F4661756C74005027
:10017000726F636861696E2073746164652F4E6588
:10018000787420737461676500566F6C61696C6C7C
:10019000652D506F756C74727900000000000000CE
:1001A000000078EC506F756C65742F436869636B61
:1001B000656E206D696E00000000000000401F5059
:1001C0006F756C65742F436869636B656E206D6134
:1001D0007800000000000000342143616E61726409
:1001E0002F4475636B000000000000000000000059
:1001F00000000028230000000000000000000000B4
:100200000000000000000000000000000000307549
:10021000506F72630000000000000000000000004A
:1002200000000000000000000078EC46756D652FAE
:10023000536D6F6B6564000000000000000000005B
:1002400000000000701746726169732F4672657373
:100250006800000000000000000000000000004CEA
:100260001D00000000000000000000000000000071
:10027000000000000000000000003075426F65754E
:10028000662F41676E6561752D426565662F4C610D
:100290006D6200000078EC536169676E616E742FC7
:1002A00052617265000000000000000000000000C4
:1002B00070174120706F696E742F4D656469756D9C
:1002C0000000000000000000000000581B426965AB
:1002D0006E20637569742F57656C6C20646F6E6552
:1002E0000000000000004C1D0000000000000000A5
:1002F00000000000000000000000000000000000FE
:10030000003075436F6E666973657269652D436170
:100310006E6479206D616B696E67000078EC5065E2
:100320007469742066696C65742F536F66742074E9
:100330006872656164000004294772616E6420661A
:10034000696C65742F546872656164000000000078
:100350000000CC29506574697420626F756C652F3C
:10036000536F66742062616C6C00000000C02B4704
:1003700072616E6420626F756C652F4669726D20C4
:1003800062616C6C00000000182E426F756C652F66
:10039000486172642062616C6C0000000000000023
:1003A000000000D430506574697420636173736514
:1003B0002F536F667420637261636B000000BC345E
:1003C0004772616E642063617373652F4861726464
:1003D00020637261636B000000A438436172616D39
:1003E000656C00000000000000000000000000003C
:1003F00000000000983A5375637265206272756C54
:10040000652F4275726E742073756761720000CC3F
:10041000420000000000000000000000000000009A
:10042000000000000000000000003075496E6163AC
:100430007469662F496E61637469766500416374FF
:1004400069662F41637469766500E2848900E284FD
:1004500083202F2000616C61726D652F616C617269
:100460006D3A005265732E6E6F6D2E3A0043616CCB
:100470006962726174696F6E00E2848900E284834C
:10048000202F2000416C61726D2061743A00416C34
:1004900061726D6520613A00E28489E296B300E200
:1004A0008483E296B300600002020304030404059F
:1004B0000900FE06FE07FF0122024A03592005003B
:1004C000620321073163335200220793769354006D
:1004D000230A2D66570D550D5501240E455E9BC10F
:1004E00050196C9054B54104250B35623754329540
:1004F0004A3201260B34621753CC20A998022705F3
:100500001173232809C35E9BCA36C820290A435E9B
:10051000934106B155022A092C66172B152B002B87
:10052000071B669756022C071A5A9714002D058A46
:100530006A232E050963132F0D445A0F328819C4FC
:100540000C620619300A3462A7A21A49260531073F
:10055000B36297646B320A3462A76206B11C01333E
:100560000A3462A7628D645200340934621B553527
:10057000621C350A34623334D8482605360A3462A0
:10058000A73258512605370B346233328835C820DC
:1005900002380A3462A76252512605390A3462A72A
:1005A000A24C1B24053A06216313033B08325A97D9
:1005B0006152003C09AB629B6A9041003D081C6699
:1005C00033321A013E09AB62934106A9043F093454
:1005D00062A7629B8A0040093462A7A2BAD1004197
:1005E000093462A7A21C5306420A3462B3E248519E
:1005F0008E04430B3462A7A20619C4A40044093434
:1006000062B3A2732400450B34623334581964304A
:1006100002460B346233345819649001470A34623D
:10062000A7A2066926054809346213E598660049C1
:1006300007B362B3626B4A0C34620F32C82003996D
:1006400014004B0A34621355923295014C0C3462FB
:10065000934106196490C1084D09346213C711CD46
:10066000004E09346213979A66004F093462A7A2BC
:10067000332900500A3462B3A21C29830C51093C6F
:100680005EA7A2CB4601520A3462B3A21C29CA005B
:10069000530A3462A762D24826055408B362B36293
:1006A000170055083462133D93025608346213BD97
:1006B00062045709346213CD71C400580A346213BE
:1006C00065922ACA00590A346213AD984106115A3C
:1006D0000A34623332886D30025B07425FB37A09B5
:1006E0005C0EC45A934146196494414619045D074F
:1006F000C25EA37A0D5E069372D7005F060D5A3371
:10070000046006927613036108246237A2520562E0
:100710000B34629341062BCA910063082462A7A29E
:100720004603640A34620F324823CA3465082462DF
:10073000A78646036609B3629BD28A1500670A340E
:100740005A37A24C1B2405680A34629341062B9A3F
:10075000016908B3629791AC066A08C25A17554BF3
:10076000016B0B346293410629C954066C07B362CE
:1007700023BB066D0925623352A5922A6E082462B6
:10078000939229036F082462A7A24C0A700A345A74
:10079000B3A21C29830C710A345A37A24C1B641073
:1007A0007209246293920D32007308246237361A5C
:1007B000097409B36217D38A190475072462132DCB
:1007C000557608246213AD18017709256293924A81
:1007D000AA0B7808246213935431790A345A13CD42
:1007E000B44152007A082462336239027B0BCB5A3F
:1007F0009B629541AC41007C06415F73087D0BCB49
:100800005A9341AC418A55047E07146A9754027F7B
:100810000500620300000000B300030203040405A6
:1008200004070D00FE09FE0900017102EA09172004
:100830000500DC0F2107C9858F431222071BB58FE6
:10084000C412230EBD8C9F52920C4A65504A490235
:10085000240CBD8CAF6C50B22D19B40825104E84F9
:100860009F4C8992284CC35212255A02260D3E8471
:100870001F2D6AD3A2448B9600270699B58F0128B5
:100880000B4B85AF244AA25A9405290C4B858F2C1B
:10089000CAA24A9444002A0C2E949F289386498B1E
:1008A00012002B0AAD94AF301AA430022C089C7CA5
:1008B0009F45C9002D068DA48F412E081B7D9F6486
:1008C00049002F0BCD84CF5A9815B33004300D4E0C
:1008D000842F2D4A428F49944900310BCD84AF4C6F
:1008E0004AC29E0601320E4E849F2109C534CCB403
:1008F000301D06330D4E848F6B589C5331191200F6
:1009000034104E84CF504BA24A9664C930A60900D9
:10091000350E4E848F435A59B43415932101360E47
:100920004E84AF294C2B8B268AC99000370C4E84FD
:100930008F6B580DD3300D01380F4E849F21098DD8
:10094000C99084C6644800390D4E849F21096DCA40
:100950009216A3093A0B437D9F64C9916449003BF9
:100960000BC47CAF68CAB145C9003C08CD84CFAC8C
:100970006B073D0826948F3B3A0C3E09CD848FB41B
:100980005B47003F0D4E849F2109C534ACE66004EF
:1009900040104E849F21094D431229C994C8430237
:1009A000410D4E842F2D4A42E33088C60042124E3C
:1009B000848F41CA922CC99221CA922CC9860543C0
:1009C0000C4E849F2109D51E93210144124E848F21
:1009D00041CA922CC9922CC9922CC98605450C4E4D
:1009E000848F435A1DA2B43A0C460B4E848F435A4F
:1009F0001DA2B415470D4E849F2109D5A621D4947C
:100A000025480B4E848FD0711844C700490ACD8405
:100A10008F410AFB34084A0B4E84BF31ED258B26EB
:100A2000004B104E848F504BA24A262659544BC27D
:100A3000004C094E848FB45F87014D0C4E848F703B
:100A40001AA2C5A363004E0D4E848F50DC94484A11
:100A5000B4D1184F0C4E849F2109FD980C09005009
:100A60000C4E848F41098DC392B602510E567C9F65
:100A700021097D89A42419E200520E4E848F410978
:100A80008DC3528B6A4918530F4E849F2109D57824
:100A90008853311912005409CD848F410AFB09553E
:100AA0000A4E848FD01F932101560C4E848FD0980C
:100AB00044BD892600570C4E848FD08BCB344463C1
:100AC00000580E4E848F504CA2362D6A09C500592D
:100AD0000CCD848F4C4B4A491676025A0B4E848FAC
:100AE0006B58145B87015B0ADC7C8F41EB6F430022
:100AF0005C0BCD848F300DD3621A065D0ADC7C8FCF
:100B000021EB6F83005E089DB4AF2CA9055F060E34
:100B10007C8F03600612C58F28610C36849F214E9E
:100B20008651539600620D4E848FB465D144715343
:100B30001600630C36849F2109D562322400640BB1
:100B40004E84DF96451B6DCA12650D36849F2109C0
:100B500087410D932101660D4E84AF294BD270C899
:100B6000D24600670F46749F454BB2688A87244C73
:100B70008604680B4E848FB465D144C700690AC5EA
:100B800084AF1C113B0D026A0CD574CF1C111B35B0
:100B90002D59006B0E4E848FB42D89A22DAA25618C
:100BA000006C09CD841FB19F06016D0DB5840FA5A2
:100BB0004549944449B4006E0A36848F64D144C7D1
:100BC000006F0B36849F21091D932101700D46741F
:100BD0008F64D1C44D59D22A00710B46749F451BB6
:100BE0003565491B720A36848F64CA92B411730D3D
:100BF00036849F2109135909932101740C46849F5F
:100C0000341CB2B42D5A00750936848FD09BB204BF
:100C1000760BB5848FCC9694922C02770BB5848F8B
:100C2000CC922889D205780C36848F308932518B4A
:100C30009230790D46748FD04D5952311912007A85
:100C40000836848F63C7617B0CDD7CAF25AC466AB8
:100C50001656077C06C9858F077D0DDD7C8F35AC68
:100C6000A5521A5626007E099DB49F4849A404A0A7
:100C70000500DC0FA108C9858F641802A20EC58C7F
:100C8000AF6CA928511225952D02A30D4E84AF29D2
:100C90004BD2704C6BCA02A40C368C8F3019A24E0A
:100CA000431206A5104D848F4C4B4A493248D1203F
:100CB000851100A608C9858F211902A70ED4841FAB
:100CC000251295484A44295100A80794BC8F480A28
:100CD000A9114E849F2109154BA4444AA4189321BD
:100CE00001AA0CBD949F3519B464480701AB0F3EAF
:100CF0008CBF244AA2244AC2244CC224AC079D942F
:100D00008F412CAD068CA48F21AE114E849F2109FA
:100D1000154BB2248B2519932101AF068DC48F4149
:100D2000B009A4AC1F25921205B10CBD8CAF301ACE
:100D3000A430070601B208B3A49FA6A434B30AB333
:100D4000A48F29C9940A00B40612C51F05B50A3E2E
:100D50007C8FD0715AAC00B6134E849F615092259F
:100D60005922254BB2244BB22401B7060AA50F0124
:100D7000B80612751F05B908B3A49F446A19BA0AC8
:100D8000B49C1F2592127508BB103E8C8F244CC258
:100D9000244CA2244AA22403BC0E56849F506D1BEF
:100DA000122DC9926C0DBD0D56849F506D4A86243C
:100DB0000DAB03BE1056848F358CB3244A222DC947
:100DC000926C0DBF0D4E84AF1C4CC36A28264302A3
:100DD000C00F5684AF38C7B42809C56110C500C11B
:100DE0000F5684BF3007B52809C56110C500C20F72
:100DF00056842F2DCA212D4A4271184431C30F56F3
:100E0000841FC90E6951128AC3208A01C40F5684F7
:100E10009FA81DD2A2241487411403C50F56842F06
:100E20002DCA442D4A4271184431C6124E849F6423
:100E300048B2244BB2E4966449960C01C70D5E7427
:100E40009F2109D51E9321AC01C80F5684AF3847A6
:100E500086214D87284D8701C90F5684BF3087866C
:100E6000214D87284D8701CA0F56842F2DCA8143F3
:100E70009A0E519A0E03CB0E56849FA81D38A4E9F2
:100E800010A5E930CC0CD5849F34070629EC340832
:100E9000CD0CD584AF2C470629EC3408CE0CD58474
:100EA000AF2C890729EC3408CF0CD5848F4C4B0725
:100EB00029EC3408D0124E848F41CA922CC986285E
:100EC000C9922CC98605D11056841FC90E849B1265
:100ED000299194686300D20E5684AF38878624F433
:100EE000980C0900D30E5684BF30C78624F4980CA2
:100EF0000900D40E56842F2DCA9121093D264302A4
:100F0000D50E56841FC98E0C49E831191200D60E31
:100F100056849FA81D1992D063322400D70C368CBA
:100F20008F308932518B9230D8145E7CDF6448B2A6
:100F300029911225522225DA92214901D90C568491
:100F4000AF3847421F932101DA0C5684BF308742E5
:100F50001F932101DB0D56842F2DCA81D0C7644811
:100F600000DC0C56849FA81D087D4C8604DD0CD542
:100F700084BF3A9069492D6C02DE0D4E848F745007
:100F800042E3B0A45500DF0ECD841FA91225A5248D
:100F9000AA641605E00E4E84AF3887863819464D90
:100FA0005902E10E4E84BF30C7863819464D5902AA
:100FB000E20F4E842F2DCA91214E8651539600E3A5
:100FC0000E4E841FC98E0C71328C9AB204E40E4E00
:100FD000849FA81D19E26418356509E50F56842F12
:100FE0002DCA7468889361D49425E60D36841F2534
:100FF0004C92616A499404E70D46749F2109D562B9
:1010000032843500E80F4E84AF388786241C0635BD
:101010004C8604E90F4E84BF30C786241C06354C2D
:101020008604EA104E842F2DCA91210987410D9321
:101030002101EB104E849FA81D19927018D430190D
:101040001200EC0BCD849F3447C44E8300ED0BCDD2
:1010500084AF2C87C44E8300EE0BCD841FA90E886D
:101060009D0601EF0CCD848F28897240EC3408F086
:101070001056849F28D392381A92D031191200F159
:101080000C4E841FC90E248B263A06F20D4E84AFF7
:1010900038878624744C8604F30D4E84BF30C7868F
:1010A00024744C8604F40E4E842F2DCA9121091D00
:1010B000932101F50E4E841FC98E0C49E8980C0946
:1010C00000F60E4E849FA81D1992D031191200F718
:1010D0000CBD8CAF3007061D082300F80F467CDFDF
:1010E0006448B22951A22D199214F90B4E84AF38DD
:1010F00047426FCA12FA0B4E84BF3087426FCA1242
:10110000FB0C4E842F2DCA81D09BB204FC0C4E8464
:101110009FA81D08BD294B00FD0F5E74BF3087429C
:10112000376549C5644800FE0E56748FB4B268A294
:10113000B8294B9A02FF0F5E749FA81D08DD942505
:1011400015932101000020A0114E849F2149934155
:10115000C99270C8D2740820A1135E7CBF2419A65E
:1011600044E97F51222519961A0020A2124E849F2D
:101170002109D5A4C59225591225430220A3104E5A
:10118000848F435A5D1629C9922CC90020A40F4EA2
:1011900084AF294BC2311CD34C590020A511D57402
:1011A000CF70A90C49A224433225590820A6164F16
:1011B000849F2CCAA22C92926148226518922CCA54
:1011C000120020A7104F849F21AB0C439245431679
:1011D000B70220A8134E840F31C9922C4986244AA5
:1011E0003A2991B20020A9154F849F2CCAA22C192C
:1011F00086A4651892B6244C220020AA123F848F40
:1012000041D112A5A254948A9229830020AB145F85
:1012100074DF7048A3A5A684499864D2924343041E
:1012200020AC104E84AF294BC2210B872CCDA205D8
:1012300020AD114E849F2C892A99362C629245B597
:101240000020AE0ECD848F410A434994C412002081
:10125000AF114E849F74926A4996644936448B025A
:1012600021030F5E849F300973408BAA9D320521B4
:10127000090F5E849F3009E3214AD32D6D03212697
:101280000D4E849F21093D26518B2421900B2E94D5
:10129000AF301C96380321910BCD84AF6C690A7B6B
:1012A0000221920B2E94BF3819C6120021930CCD47
:1012B00084AFB0A7A4B2450021940E2F94AF24AB05
:1012C0000C439255220021950ECD84AF6C690A4BD8
:1012D00049658B0021960A36848F4D4CE206219792
:1012E0000B3684BF514BA2B00A21980A36848FB8BE
:1012F00025D40621990B3684DFB09464E206219A46
:101300000E2F94AFB6641892284C2200219B0E2F0A
:1013100094AF248C926148B2A804219C0C2F94AF06
:10132000344B96AE2100219D0C2F94CFAC52D99214
:101330003402219E0D2F94AF4EC39044619400213E
:101340009F0DCD84AF6C69CA96A6B00421A00D2F65
:10135000949F288C9261883A0121A10FCD84AFB06F
:101360009454B628A96C110021A20C2E94AF4A9473
:101370000C522D0A21A30E2E948F288BA241899204
:10138000280221A40C2E94AF4A360C49161521A52B
:101390000CCD84AF6C690A3B0D0221A60E2E948FF2
:1013A000A8960C439644110021A70DCD848F410AC5
:1013B0003B25952D0221A80FCD84AF6C690AA3A40B
:1013C000B245830021A90C2F94AFC6618872200416
:1013D00021AA0B2F949FA8180D6B0921AB0C2F94F9
:1013E000AF2EC31015930821AC0E2F949FA8124561
:1013F000C3544B220021AD0D2F94AF244B2A97AC40
:10140000120121AE0F2F94AF244B2AC390B42511A3
:101410000021AF1056849F344C234B1A6649698CC7
:101420000021B00D5684AF301C962CAAF60021B1D5
:101430000E5684BF3819862C89AA5D0121B20D563B
:1014400084DF9E2AD93024710621B30D56848FB4CF
:10145000A75A328C250021B40C46848F21ED969436
:10146000C60821B50D5584CF9E92D2B0A41100219B
:10147000B60E3F94BFAD944599D2B2860021B70F06
:101480003F949FAD94455994B4AD110021B81147D4
:10149000848F430E8C6A9203399003090021B9149A
:1014A0004F848F284BC26150C2A8980C8398645116
:1014B0000021BA0F3F949FA8B4B468511665D906AD
:1014C00021BB0F3F94AFD2A43465511665D90221D8
:1014D000D00E3F8CBF341D861C38E5400621D11349
:1014E0004F84BF34C914A55312266112266112011C
:1014F00021D20E3F8CBF1C88861D38A4350021D315
:10150000134F84AF244CC2244CC2244A5A6C499ACB
:101510000121D40E2F94AF241B943419B42402213A
:10152000D5135784BF34C914A553122651D2624B28
:10153000D20C21D60F3F848F4B9495B4A426E5405E
:101540000421D70F3F849F618B6A49B62559540403
:1015500021D80F3F84AF1C88B4A42665A564182148
:10156000D90F3F84CFA896645B9245B5610121E60F
:101570000F3F8CBF544C0635498648CE0021E711F9
:101580004F84BF34C92AA7244CC2244CC20921E885
:101590000E3F8CBF581A92EAA0846A0621E9124FC6
:1015A00084AF3109933009936859B24A9A01258072
:1015B0000837AC8FFF3F25810817748F0F022582F3
:1015C000071F748F7F2583092F748FFF07012584E0
:1015D000093F748FFFFF1025850A47748FFFFF8333
:1015E0000025860A57748FFFFF7F0825870A5F74DE
:1015F0008FFFFFFF4125880B6F748FFFFFFF3F04B4
:1016000025890A6E748FFFFFFF03258A0A6D748F88
:10161000FFFF1F04258B096C748FFFFF21258C09A8
:101620006C748FFFFF21258D086B748FFF1F258E33
:10163000086A748FFF20258F0869748F0F01259029
:10164000086B768FFF1F2591105F7C9F76A43BD29D
:101650008E7447DA910E25920D6F748FA4FFFFFFF1
:10166000FFFF0725931B6F748F43D2320C4A651816
:10167000949661502AC3A0B40C8352190601259494
:101680000817CC8F0F0225950869778F0F012596D3
:10169000083C748FFF212597073B768F7F2598089C
:1016A00034AC8FFF002599136F748F211BB2211B5F
:1016B000B2211BB2E1FF1F02259A126F748F211B0A
:1016C000B2211BB2211B7260FC03259B136F748F28
:1016D000FF7FC8866CC8866CC8866CC800259C0ACB
:1016E0006F748FFF3FFE03259D0733AE8F3F259E0E
:1016F000136F74CF3F0CD9900DD9900DD9900D195F
:1017000000259F0B6F74CF3FFCFF870025A0093F8A
:101710008C8FFFFF1025A10B3F8C8F83EA75180477
:1017200025A20C3F8C9F4149BD26830225A30F3F74
:101730008C8F83AA2CCAA22CEA300825A40D3F8CDA
:101740008F833A5C87EB300825A5113F8C8F83523D
:10175000512A4A45A92895611025A6103F8C8F83F0
:1017600052192E95E15219060125A7103F8C8F833F
:101770001469C9B66452340C0225A80F3F8C8F83BC
:101780001429D92D91A2611025A9103F8C8F97643F
:10179000A92CC9525992E10025AA08AD948FFF10D7
:1017A00025AB09AD948F9B6D1825AC092F948FFF45
:1017B000070125AD0B2F948F836A1D060125AE0905
:1017C000BD8C8FFF070125AF09BD8C8F9BB76125AD
:1017D000B00C2F94AF41197E48060925B10D2F9406
:1017E000AF4109553119240025B20E4784BF381D79
:1017F000B7411A94E14125B3104784BF384DC22444
:101800002B65493A0C0225B40BB58CAF309B96E1A1
:101810001025B50CB58CAF304BA2A4360C25B60DF7
:101820003F8C8F781CA4E1698C0125B70D3F8C8F0C
:10183000788CA47092C61825B80C2E940F718886E7
:1018400043240225B90C2E940F3191B24512012583
:10185000BA0C2F948F78C88683160325BB0D2F945E
:101860008F78C8B261C8620025BC0F47848F0FCA49
:10187000200DDAB8C6190025BD1047848F839A64FD
:101880005156099334CE0025BE0BB58C8F8764DA90
:10189000C20825BF0CB58C8F5B524AB2300225C0FE
:1018A0000C3F8CEF701A9E06710E25C10D3F8CEF18
:1018B0007092C6480AE70025C20B2E944F6938443F
:1018C000432825C30B2E944F49D922251425C40B38
:1018D0002F94EF6C3868431C25C50C2F94EF6C18BF
:1018E000B26C880325C60F3F84BF741B9461480601
:1018F0006DCD0025C70E3F84BF34C92A699255D2E9
:101900000C25C80F3F84BF34C99296A55B92660030
:1019100025C90F3F8CAFAD1245CA2255B26C0225C6
:10192000CA10CD84AF304BA2A49694922C8C002583
:10193000CB0D3F8CAFAD925A932C9B0025CC0F3F23
:101940008CAF2487D21C487328890025CD0F3F8C8B
:10195000AF4D515A948AD2629B0025CE0F3F8CAF77
:10196000AD12454A45AA64D90425CF0D3F8CAF6D11
:101970005086BF0CDA0425D0103F8CAF6D498668C5
:1019800090062959B20925D1103F8CAF2D59A2419B
:101990001AA42149B60925D20D3F8CAFAD920E5F36
:1019A000066D0225D30E3F8CAF6D5086AF49964D24
:1019B0000025D4103F8CAF2D59A2411AD424CB2638
:1019C0000025D5103F8CAF2D52B2211B0EC9A04D62
:1019D0000025D60BBC8D0F6919BE480025D70A3CDF
:1019E0008C2F65F8320925D80D6F748FFFDB6ADD07
:1019F00086FF0125D90F6F748FFFDBB2288B721B16
:101A0000FE0725DA0C3FA48FFFDBB2284B0025DB55
:101A10000C3F748F64516EC3FF0025DC0A24A42F91
:101A200025CA320025DD08A4A50FB11625DE09A4BC
:101A30008DBF52220125DF09248C8F2C0C0525E057
:101A40000A27A4AFAD92AA0125E10B278C8F544D34
:101A5000B26C0225E20E3F8CEF54DC86685086871C
:101A60000025E30F3F8C8F581D876C908665180208
:101A700025E40E3F8C8F0FC9200DD9A8C60025E59F
:101A80000E3F8C8F43324C833684AB1C25E60BAD66
:101A9000949F25B3250B0025E7103F8C8F876CC8DA
:101AA000866CC8866C180425E8103F8C8F833664DA
:101AB00043366443361C0225E90E3F8C8F3F248356
:101AC0003464E3300825EA0E3F8C8F83B80DD1A033
:101AD0000C3F0425EB113F8C8F83144991144991DD
:101AE000140D830025EC114784BF384DC2244B4AA6
:101AF000831245C32025ED104784BF381DB7255AF2
:101B000092211A060125EE0F4784BF381DB7644A9B
:101B10009668380825EF0D3F8CAFAD925A932C9BF9
:101B20000025F00F3F848F831449D120A9EA3008A3
:101B300025F10F3F848F83AA0E921449D1300825D6
:101B4000F20E3F848F836A1AA4488A864125F30FD8
:101B50003F848F8314499134A8EA300825F40F3F5D
:101B600084AF2D698A06494DB26C0225F50E3F847B
:101B7000AFAD920E9254699B0025F60E3F84AFAD37
:101B8000924A8354699B0025F70F3F84AF2D698AE1
:101B9000A4414DB26C0226000CBD8CAF4A6F494F78
:101BA000110026010C269C9F70498665480026027C
:101BB0000ECD84AF6C19A4B029C932002603125788
:101BC00084AF6DD092AC251B94D49A0C0A002604E5
:101BD000105684CFA8254BDAC2488BDA340026058C
:101BE0000CB594AF301A9429A90526060CB594AF0C
:101BF000301A94D2920526070BCD84CFAC6B259377
:101C0000062608114E848F43A82551254BB228D1B2
:101C1000A60126090CAD8C9F2553122D5900260ACA
:101C20000F3E849F2109C5246A49945202260B0F56
:101C30003E849F284994524B28264302260C0CB51B
:101C400084CF2C922A512401260D0E4E843F2D6AFA
:101C5000D3422D6AD300260E0EBD849FC3525994E1
:101C600021198600260F0CBD849FA5295B2ADA3036
:101C700026100B4E848F43E8C761082611114E844D
:101C80008F43764AA4644986488986212612104EDD
:101C9000848F8334448B2FD3100D830026130FCDF4
:101CA000848F4C4B4A495689929A162619114684BC
:101CB000CF2C4A0ECB920C49B2444902261A0D2F62
:101CC000848F43B4644AA68403261B0D2F848F831C
:101CD00032255AA28D00261C0C2F848F439495B276
:101CE000281C261D0BC584CF9A62B30D03261E0C3B
:101CF0002F848F8316D5A26C04261F0CC5848F9B5E
:101D00002D5132B10026541056842F2951A6514C22
:101D1000A25EC2610826550E56842FD3684CA25E7F
:101D2000C261082656104E848F4419063189FA255F
:101D30001C860026570E4E842F2DEA372D4AC2618D
:101D40000826580F4E84CF6811C5446AC9C461087B
:101D500026590E46842F2D6AD3A296701802265A51
:101D60001156842F2951861F92211AA221191E264D
:101D70005B1256842F6918126578488668888664D5
:101D800078265C124E848F44191E92211AA2211AC1
:101D900092E101265D114E842F4D89946888864C0E
:101DA0001B92E101265E114E84CF681894615006A3
:101DB0006948860F02265F0F46842F6D88864C1B6C
:101DC000A221191E26600CC584AF305B864FD90254
:101DD00026610DBD849F2E4AA225B5300226620DD4
:101DE0002E8C2F2D4AC224CA240026630F4784BF9D
:101DF000740D93CA30248DE90426640EC584AF3077
:101E00004B6ADA30650B0026650CBD849FCAF0650D
:101E10000B230026660D2E8C2F6D488665C8240086
:101E200026670F4784BF3449C3A465E9984E000074
:101E30000000000000240027002A002D00300000D0
:101E4000000000250028002B002E003100000000BB
:101E5000002300260029002C002F000404040404A1
:101E6000030405020202020403020202020606063D
:101E700006060604040202020404040802011040DB
:101E800080401020408040800802040180402010E3
:101E90000201108010204040200000000200090FC5
:101EA0000000030401000C0000000000000000001E
:101EB0000000000000000000080B00020202010008
:101EC000090400000102020000052400100105249D
:101ED000010101042402060524060001070581030F
:101EE00010004009040100020A0000000705020278
:101EF00040000007058302400000040309041201AA
:101F00000002EF020140412336800001010203017B
:101F100041726475696E6F204C4C43004172647568
:101F2000696E6F204C656F6E6172646F0073206123
:101F300076616E742F756E74696C006D00000331EC
:101F400011241FBECFEFDAE0DEBFCDBF12E0A0E06C
:101F5000B1E0ECEDF9E602C005900D92A83AB107A8
:101F6000D9F724E0A8EAB2E001C01D92A43FB2076D
:101F7000E1F71FE0C0EADFE004C02197FE010E9404
:101F8000C634CF39D107C9F70E9432280C94EC34FB
:101F90000C940000CF92DF92EF92FF920F931F9369
:101FA000CF93DF936C017A018B01C0E0D0E0CE15B6
:101FB000DF0589F0D8016D918D01D601ED91FC917D
:101FC0000190F081E02DC6010995892B11F47E0165
:101FD00002C02196ECCFC701DF91CF911F910F91E5
:101FE000FF90EF90DF90CF90089580E00895DC019E
:101FF0001696ED91FC91179720E030E040E069E102
:102000000994DC011696ED91FC91179720E030E0E1
:1020100040E068E109949A01DC011696ED91FC918B
:102020001797462F67E10994462FDC011696ED912C
:10203000FC91179720E030E066E10994462FDC011F
:102040001696ED91FC91179720E030E065E1099438
:10205000DC011896ED91FC91199720E030E040E00A
:1020600069E10994DC011896ED91FC91199720E043
:1020700030E040E068E10994FC016623D9F16A3060
:10208000C9F18589811124C06C3F20F085E0858BE2
:1020900061701AC0683F20F084E0858B637014C0C3
:1020A000603F20F083E0858B67700EC0603E20F0BB
:1020B00082E0858B6F7008C0603C20F081E0858BEA
:1020C0006F7102C070E01BC070E07787668715C033
:1020D0008150858B6F732685378596E0220F331FDD
:1020E0009A95E1F7A901462BBA0177876687811196
:1020F00004C005C06FEF7FEF02C06EEF7FEFCB0132
:102100000895662329F06A3019F0862F90E008952B
:102110008FEF9FEF08950F93DC01DE968C91DE9791
:102120008150861B682F32E0300F032F0370DF963B
:102130009C91DF979150D8968C91D89758EF859FB6
:10214000900D1124941B492FD9968C91D997213049
:1021500049F4681708F043C0DA968C91DA9798171B
:10216000F0F537C0023019F4621B6F5F04C0033012
:1021700011F4421B4F5FDA969C91DA97032F01709E
:1021800030FD14C0491758F5260F261730F468178C
:1021900018F42FEF280F03C060E0681700F5222322
:1021A000F1F0821708F4282F261B13C06817B8F423
:1021B000240F241730F4491718F42FEF290F05C006
:1021C00040E0491760F4222351F0921708F4292FB8
:1021D000241BD196ED91FC91D297CD0109950F91D9
:1021E0000895FC0127A9822F880F880F880F82AFDE
:1021F000A081B18150968C915097803208F08FE188
:10220000880F880F880F81AF80AD982F990F990F95
:10221000990F93AF51963C915197482F50E0420F40
:10222000511D632F70E06417750714F4232F281BCA
:1022300094AF892F38E0239F800D1124282F85AF7C
:1022400080EF86AF54964D915C915597413F510573
:1022500008F446AF56968C9187AFDF01A05CBF4F64
:102260001C9236AD11963C931196821710F41C9275
:1022700003C0382F321B3C93ED5BFF4F891B8083DB
:102280000895EF92FF920F931F93CF93DF93DC019A
:10229000942F9770E1E0F0E0092E01C0EE0F0A9450
:1022A000EAF71E2FED01CF58DF4F8881823028F4E6
:1022B0007E2F813019F410E001C070E050E0487FBB
:1022C000D596ED90FC90D697ED91FC911197808971
:1022D000849FF001859FF00D1124E60FF11DEE0D96
:1022E000FF1D01110CC02E0F8081872B8127819348
:1022F0002E13FACF1DC0770F110F2223C9F03081A2
:10230000372B312730839F5F977021509111F3CF86
:10231000D9968C91D997E80FF11D8881823020F4ED
:10232000813021F011E002C011E0E7CF71E0E5CF8C
:10233000DF91CF911F910F91FF90EF90089580E072
:1023400008950E94E034FC01962F6831E1F160F4B9
:10235000B901943179F0973109F0A0C050E088E9D3
:1023600093E00E94261B2DC0693109F443C06032FE
:1023700041F194C01092C1021092C0021092EA0280
:1023800010920B031092E80281E08093E702109212
:10239000C20261E082E00E94E51861E083E00E94F1
:1023A000E5188091B9008E7F8093B9008091B900C3
:1023B0008D7F8093B90088E48093B80085E4809392
:1023C000BC0081E00895A081B1811D968C9184307C
:1023D00018F08CE08093B800828990E095958795FD
:1023E00091E09093E90280930C031092EA0210921C
:1023F0000B03E7CF90910B0380910C03913208F00F
:1024000046C02091E8022111FCCF22E02093E8028F
:1024100021E02093E7022FEF2093E6021092E502DD
:102420009093E402ABEEB2E044EC52E0FA012E2FBE
:10243000241B291718F42D912193F9CF1092C30270
:102440009091C302880F892B8093C3028091C202AE
:10245000813061F41092C2028091C3028093BB006C
:102460008091BC0083FDF8CF85EC01C085EE8093A0
:10247000BC008091E8028230E1F38091E6028F3F58
:1024800031F08091E602803211F08091E6021092E4
:10249000EA0210920B031092E90293CF80E00895B4
:1024A0001F93CF93DF93EC01962F642F9C3268F437
:1024B0009A3208F052C0983281F09932C9F570E032
:1024C00080E090E00E945C1948C09D32B1F080F13C
:1024D00084EB890F8230D8F02BC06B9610E0899185
:1024E0008F3F39F0103110F461E001C062E00E94CA
:1024F00015191F5F163199F730C0433018F082E08C
:1025000090E002C085E090E00E94511926C09F73C0
:10251000C90FD11D411107C061E08B8D0E941519B3
:1025200060E08B8D10C062E08B8D0E94151915C084
:102530009034A8F09F73FE01E90FF11D838D8F3F4A
:1025400061F0903118F40E94E51807C00E94BC1891
:1025500021E0892B09F420E02E8B81E001C080E08E
:10256000DF91CF911F910895CF93DF931F92CDB745
:10257000DEB76983BE016F5F7F4F0E941D250F90FC
:10258000DF91CF910895EF92FF921F93CF93DF9346
:10259000EC01162F7A010E94321060E4CE010E94F5
:1025A000B412E885F9859701412F67E1CE010995BD
:1025B000CE01DF91CF911F91FF90EF900C942810E6
:1025C000EF92FF921F93CF93DF9300D0CDB7DEB78A
:1025D0007C01142F673128F4653140F4643149F1EE
:1025E00041C0673191F06A3170F03CC00E943210F6
:1025F00060E0C7010E94B412612FC7010E94B412AB
:10260000C7010E94281081E02EC0A901193160F095
:1026100068E1C70129833A830E94C31218512981B6
:102620003A81285E3F4FF1CF612FC7010E94C3124C
:10263000EACFDC0152968C9152978F3F19F488E7CC
:1026400052968C93D7011896ED91FC911997412FD2
:1026500064E1C7010F900F90DF91CF911F91FF9020
:10266000EF90099480E00F900F90DF91CF911F9130
:10267000FF90EF90089508958CBD9DBD0895882327
:1026800059F0FB0191E02191222341F02A30D9F742
:10269000981739F09F5FF7CFCB01089580E090E065
:1026A0000895CF010895009749F0FC0181E09191D0
:1026B000992329F09A30D9F78F5FF9CF80E00895F8
:1026C000DC011A96ED91FC911B9720E030E0099413
:1026D000EF92FF920F931F93CF93DF931F92CDB78B
:1026E000DEB77C018B01D8016C916731E1F078F4A1
:1026F0006531A0F1F80141814983D7011696ED912A
:10270000FC91179720E030E0C701099524C06A3199
:10271000A8F06E3F19F5F8014181498369E2C701CC
:102720000E94601318C0F80181818983AE014F5F58
:102730005F4F61E0C7010E940B100DC00F5F1F4F7C
:10274000D7011696ED91FC91179720E030E040E01C
:10275000C7010995C8CF0E5F1F4FC5CF0F90DF91FE
:10276000CF911F910F91FF90EF900895EF92FF92FC
:102770000F931F93CF93DF93EC01142F79016D30EA
:10278000A9F118F46B3039F15FC06E3009F441C023
:102790006F3009F059C00E940110F7018381088948
:1027A000F8E08F9F000D112460E4CE010E941E10FE
:1027B000602F62956F706061CE010E941E10602FC5
:1027C0006F70CE010E941410F7016481606BCE011E
:1027D0000E94141029C0411103C064E271E002C0DC
:1027E0006FE171E0CE010E94681371C0411108C011
:1027F00068E171E00E946813E881F981828907C06D
:1028000061E171E00E946813E881F9818389888B16
:102810005EC00E94011061E8CE010E941E10612F6F
:10282000CE010E9414100CC0F701408151816281D9
:10283000660F660F660FCE010E940B101150A1F7B4
:10284000CE010E94F70F43C0693031F48EE591E06C
:102850009983888382E0DBCF6A30B9F5EA85FB850E
:1028600020E030E040E068E2CE010995EE81FF8192
:1028700020E030E040E064E1CE01099541E06BE406
:10288000CE010E946013E881F981448169E2CE01A2
:102890000E94601340E06BE4CE010E946013E88167
:1028A000F981448169E2CE010E94601341E06BE44A
:1028B000CE010E946013E881F981458169E2CE0171
:1028C0000E94601369E271E08DCF80E001C081E079
:1028D000DF91CF911F910F91FF90EF9008950F938B
:1028E000FC01EE5BFF4F308131965081451728F493
:1028F000301730F0041720F010C03017D8F30DC097
:10290000FC01E05CFF4F308131968081681738F41C
:10291000321740F081E0261730F080E004C0321713
:10292000C8F3FBCF81E00F9108950F93222349F064
:10293000DC01D396ED91FC91D4970280F381E02DD8
:1029400009950F910895CF93DF931F92CDB7DEB70E
:102950006983DC01ED91FC910280F381E02D41E07F
:1029600050E0BE016F5F7F4F09950F90DF91CF91CF
:10297000089583E08093E9008091F200882319F0A4
:102980008AE38093E8000895FC018485958597FD8E
:102990000BC09FB7F89482E08093E9008091F20029
:1029A0009FBF90E0019608959FB7F89482E08093CE
:1029B000E9008091F2009FBF90E0089540911A03D2
:1029C00050911B03209118033091190342175307AC
:1029D000B4F49091E8009570E1F39091E80092FDD5
:1029E00019C08093F10080911A0390911B03019606
:1029F0008F739927892B19F48EEF8093E8008091CB
:102A00001A0390911B03019690931B0380931A0362
:102A100081E0089580E00895DF92EF92FF920F9396
:102A20001F93CF93DF93D82E8A017B01E40EF51E0E
:102A3000EB01CE15DF0571F0D7FE03C0FE018491D6
:102A400001C088810E94DE1421968111F2CF8FEFA0
:102A50009FEF01C0C801DF91CF911F910F91FF90AF
:102A6000EF90DF900895615030F02091F100FC016B
:102A700020830196F8CF289884E6809388030895F0
:102A800090E0FC013197EF30F105B0F5EA5AFF4FC5
:102A90000C94C634809180008F7703C080918000B1
:102AA0008F7D80938000089580918000877FF9CF8B
:102AB00084B58F7702C084B58F7D84BD08958091E1
:102AC00090008F7707C0809190008F7D03C0809128
:102AD0009000877F8093900008958091C0008F7749
:102AE00003C08091C0008F7D8093C00008958091C5
:102AF000C200877F8093C20008953FB7F894809109
:102B0000110390911203A0911303B091140326B501
:102B1000A89B05C02F3F19F00196A11DB11D3FBF15
:102B2000BA2FA92F982F8827820F911DA11DB11DA3
:102B3000BC01CD0142E0660F771F881F991F4A959F
:102B4000D1F708950E94502590E00895CF93DF9328
:102B50001F92CDB7DEB7FC018485958597FD05C032
:102B60002FEF3FEF358724870BC0CE0101960E94DF
:102B70002625019719F4898190E002C08FEF9FEF1D
:102B80000F90DF91CF9108950F931F93CF93DF9311
:102B90001F92CDB7DEB78C01FC018485958597FF28
:102BA0000EC0CE0101960E942625019719F42981B5
:102BB00030E002C02FEF3FEFF80135872487F8019E
:102BC000848595850F90DF91CF911F910F91089586
:102BD0000F931F93CF93DF931F92CDB7DEB782E0A1
:102BE000898342E450E068EB7EE180E80E940C15A6
:102BF0000E946125DC0112960D911C91139701151D
:102C0000110569F0D801ED91FC910280F381E02D6E
:102C1000BE016F5F7F4FC801099597FF07C089818B
:102C20000F90DF91CF911F910F910895F8010085CA
:102C30001185E5CF1F920F920FB60F9211248F933B
:102C40009F938091E1009091E100937F9093E10048
:102C500083FF0FC01092E90091E09093EB00109277
:102C6000EC0092E39093ED001092890398E090932A
:102C7000F00082FF20C093E09093E9009091F20071
:102C8000992319F09AE39093E80090911C039923FB
:102C900039F090911C03915090931C03992389F172
:102CA00090918803992339F09091880391509093E3
:102CB0008803992341F184FF10C08091E2008E7E49
:102CC00081608093E2008091E1008F7E8093E1003B
:102CD000809117038E7E806111C080FF16C08091A5
:102CE000E2008E7E80618093E2008091E1008E7E22
:102CF0008093E100809117038E7E8160809317039B
:102D000004C05D9ACDCF289AD6CF9F918F910F9016
:102D10000FBE0F901F9018951F920F920FB60F9233
:102D20001124CF92DF92EF92FF920F931F932F9374
:102D30003F934F935F936F937F938F939F93AF9343
:102D4000BF93EF93FF93CF93DF93CDB7DEB76C972D
:102D5000DEBFCDBF1092E9008091E80083FFEDC196
:102D600068E0CE0145960E94331582EF8093E8001B
:102D70008D8987FF05C09091E80090FFFCCF03C0CC
:102D80009EEF9093E800982F907609F0C6C09E8938
:102D90002F89188D91110CC0803829F48091160369
:102DA0008093F10002C01092F1001092F10048C12E
:102DB000422F50E0512B913051F4811141C14130EB
:102DC000510509F03DC1809116038D7F0BC09330F2
:102DD00061F4811135C14130510509F031C1809153
:102DE00016038260809316032BC1953041F48091C5
:102DF000E80080FFFCCF20682093E30021C19630DB
:102E000009F05FC0EB8CFC8C1092E90010921B0360
:102E100010921A03123091F51092190310921803B0
:102E20000E94E81599E0BE016F5F7F4FDB01E92F3B
:102E30001D92EA95E9F799831A8391E09E8390EABF
:102E400098879AEF998720911A0330911B03275F87
:102E50003F4F3C832B838D831092E90010921B031C
:102E600010921A03F0921903E092180349E050E01F
:102E700080E00E940C150E94E815E2C0F092190350
:102E8000E09218030E946125DC011296ED90FC90FF
:102E90001397E114F10409F4C0C0D701ED91FC913E
:102EA0000480F581E02DBE016B5E7F4FC70109955F
:102EB000009719F00CF0C4C0C7C0F701E084F1849A
:102EC000E8CF973009F4C0C0983021F481E08093B6
:102ED000F100B6C0993009F0B3C0837009F0B4C0F6
:102EE000E7E7F1E081E021E036E39081992361F0AA
:102EF0008093E9002093EB0091919093EC00309344
:102F0000ED008F5F873089F78EE78093EA0010929B
:102F1000EA008F898093890393C08B8D9C8D1092DA
:102F2000E90010921B0310921A03909319038093E7
:102F30001803898D811156C08E899D89913A59F463
:102F4000813209F081C047E050E069E071E080E043
:102F50000E940C1575C0913209F076C0833289F455
:102F6000888D90E0982F88272F89822BA0E0B0E0F1
:102F70008093050190930601A0930701B093080187
:102F80005FC0803269F48091E80082FFFCCF67E087
:102F900089E091E00E9433158BEF8093E80006C032
:102FA000823209F04DC08F89809310018091150302
:102FB000882319F0EEEFFAE002C0E0E0F8E080913B
:102FC000090190910A01A0910B01B0910C01803B85
:102FD0009440A105B10509F07BC08091100180FFEC
:102FE00093C076C00E946125DC0112960D911C9160
:102FF00013970115110541F1D801ED91FC91019054
:10300000F081E02DBE016B5E7F4FC80109958111F3
:1030100017C0F80100851185ECCF113009F44EC0BE
:10302000133091F48F89882309F445C0823081F4EC
:1030300040E860E18CE19FE10E94C630882321F0E6
:103040008EEF8093E80079C081E28093EB0075C039
:10305000813029F440E86BE080E19FE1EDCF8330DF
:1030600099F70E946125DC011296ED90FC90139770
:103070008E010F5F1F4F6801E114F10479F0D70151
:10308000ED91FC910680F781E02DB801C70109950B
:10309000080F111DF701E084F184EECFD8011C92D6
:1030A000F60101900020E9F73197BF016C197D0905
:1030B00040E0C601C1CF6AEF7EE102C06EEF7EE163
:1030C0006115710509F2FB01449150E080E840CFA1
:1030D0000FB6F894A8958091600088618093600095
:1030E000109260000FBEA895EE3F2AE0F20739F07B
:1030F0008091FE0A9091FF0A91838083A1CF109264
:10310000FF0A1092FE0A9CCFEE3F8AE0F80731F0EA
:10311000808191819093FF0A8093FE0A87E797E769
:10312000918380839BE088E10FB6F894A895809303
:1031300060000FBE9093600083CF6C960FB6F8943A
:10314000DEBF0FBECDBFDF91CF91FF91EF91BF9159
:10315000AF919F918F917F916F915F914F913F912F
:103160002F911F910F91FF90EF90DF90CF900F90D4
:103170000FBE0F901F901895CF93DF93282F30E04C
:10318000F901E756F14E8491F901E658F14ED491D8
:10319000F901E55AF14EC491CC2391F081110E94BE
:1031A0004015EC2FF0E0EE0FFF1FE35BF14EA59111
:1031B000B491EC91ED2381E090E021F480E002C035
:1031C00080E090E0DF91CF9108951F93CF93DF933C
:1031D000282F30E0F901E756F14E8491F901E658C5
:1031E000F14ED491F901E55AF14EC491CC23C9F0C6
:1031F000162F81110E944015EC2FF0E0EE0FFF1FFB
:10320000E15CF14EA591B4918FB7F894111105C00E
:103210009C91ED2FE095E92302C0EC91ED2BEC930E
:103220008FBFDF91CF911F910895CF93DF9390E0EF
:10323000FC01E658F14E2491FC01E55AF14E8491CF
:10324000882361F190E0880F991FFC01EF5CF14E3B
:10325000C591D491FC01E15CF14EA591B49161114D
:1032600009C09FB7F8948881209582238883EC91C8
:103270002E230BC0623061F49FB7F8943881822FFF
:10328000809583238883EC912E2B2C939FBF06C0BF
:103290008FB7F894E8812E2B28838FBFDF91CF91D1
:1032A00008958230910538F0880F991F880F991F73
:1032B00005970197F1F708958F929F92AF92BF9271
:1032C000CF92DF92EF92FF926B017C010E947D15FD
:1032D0004B015C01C114D104E104F104F1F00E943E
:1032E0007D15DC01CB0188199909AA09BB09883E23
:1032F0009340A105B10570F321E0C21AD108E1089D
:10330000F10888EE880E83E0981EA11CB11CC11440
:10331000D104E104F10419F7DDCFFF90EF90DF90C5
:10332000CF90BF90AF909F908F9008958F929F9273
:10333000AF92BF92CF92DF92EF92FF920F931F93C3
:10334000CF93DF935C016B017A0180911001882398
:1033500009F45BC080918903882309F456C08091E9
:10336000170380FF05C08091E00082608093E00039
:10337000E70110E00AEF83E0882E9AE3992E209768
:10338000D9F10E94502581110AC0015009F43DC0B5
:1033900061E070E080E090E00E945C19F0CF282F9F
:1033A00030E0C217D3070CF48C2F4FB7F8948092FB
:1033B000E9009091E80095FF1DC0282F30E0C21B66
:1033C000D30BF601982F915020F081918093F1005A
:1033D000FACFC20ED31E112319F09092E80009C053
:1033E0008091E80085FD06C09092E80011E02097EA
:1033F00009F010E04FBFC3CF1111C3CF5D9884E631
:1034000080931C031E141F0444F081E090E0F5013A
:103410009383828380E090E001C0C701DF91CF9168
:103420001F910F91FF90EF90DF90CF90BF90AF90E2
:103430009F908F9008952FB7F89460910D0370912D
:103440000E0380910F03909110032FBF0895213038
:1034500039F020F0223031F4861B0895860F08954C
:10346000841B0895840F0895213039F020F0223014
:1034700031F4841B0895840F0895860F0895861BE8
:103480000895DC0118964C911897ED91FC911197D5
:10349000249130E0042E02C0359527950A94E2F776
:1034A000862F840F883010F4E22F0EC031961196CB
:1034B000FC93EE939491E92F98E0941B01C0EE0FDA
:1034C0009A95EAF7E22B885018968C9381E090E069
:1034D00001C0880F6A95EAF781508E230895BF9244
:1034E000CF92DF92EF92FF920F931F93CF93DF93D0
:1034F00000D000D01F92CDB7DEB78C01DC01D7968B
:10350000BC90D797D896DC90D897ED91FC91C18864
:10351000E12CF12CD801ED91FC9111978089D59681
:103520004D915C91D6971C829D2D9E0D9D838B8322
:10353000B8E08B9FC00111248E9D90018F9D300DAE
:103540009E9D300D1124CA01820F931F9A83898397
:10355000D8011496ED91FC9115979E012F5F3F4F76
:1035600041E06FE0C801099581E08E0D8B1538F4BC
:10357000BFEFEB1AFB0A8D2D8E0D8C1558F20F90B4
:103580000F900F900F900F90DF91CF911F910F919F
:10359000FF90EF90DF90CF90BF900895089581E065
:1035A00090E03091C1022091C002321710F480E007
:1035B00090E091958195910908958091C102909133
:1035C000C002891730F48F5F8093C10280E090E0E1
:1035D00008958FEF9FEF08958091C00290E02091B1
:1035E000C102821B9109089585ED8093BC008091F2
:1035F000BC0084FDFCCF1092E80208954091630363
:10360000262F30E0240F311D21323105DCF42091CA
:10361000E8022430C9F4FC0180E090E0861758F4F9
:10362000309163032191DC01AF5BBC4FA30FB11D4F
:103630002C930196F3CF80916303680F609363032B
:1036400080E0089581E0089582E00895CF92DF92AE
:10365000EF92FF920F931F93CF93DF937C01262F5E
:10366000972F8A018091E902882391F0C62FD72FE6
:103670006E01C40ED51ECC15DD0571F06991D70120
:10368000ED91FC910190F081E02DC7010995F3CFF8
:10369000642F822F0E94FE1AC801DF91CF911F91E3
:1036A0000F91FF90EF90DF90CF900895CF93DF932D
:1036B0001F92CDB7DEB769832091E9022223D1F0B2
:1036C00020910B03203240F021E030E0FC013383F5
:1036D000228380E090E015C08091EA02E82FF0E0BC
:1036E000E551FD4F998190838F5F8093EA0280932B
:1036F0000B0305C061E0CE0101960E94FE1A81E035
:1037000090E00F90DF91CF910895CF92DF92EF92EA
:10371000FF920F931F93CF93DF936C01EB017B011B
:10372000E40EF51E00E010E0CE15DF0561F06991B2
:10373000D601ED91FC910190F081E02DC601099533
:10374000080F191FF1CFC801DF91CF911F910F9181
:10375000FF90EF90DF90CF900895089580E090E083
:1037600008955F926F927F928F929F92AF92BF92D5
:10377000CF92DF92EF92FF920F931F93CF93DF933D
:103780005C01F62E642EEC01C85BDF4F1C81DD80EE
:103790004C0181E7880E911CEE80E11ACE2CFE14BC
:1037A00008F4CF2C5B800C85202F4D2D612F8A8152
:1037B0000E94271A782E202F4D2D612F852D0E94D3
:1037C000341A482F662011F09A8504C0998591110A
:1037D00008C09B85F40190832C2D672DC5010E94A4
:1037E0009514FE1420F0FE18D39410E0D5CF1F0DD1
:1037F0001C83DD82DF91CF911F910F91FF90EF909D
:10380000DF90CF90BF90AF909F908F907F906F9000
:103810005F900895FC01A081B18150969C9147A9C9
:10382000949FA001112483E0440F551F8A95E1F76E
:1038300060E070E085A996A90C94E5349C01FC0138
:10384000EC5BFF4F8081918147966F3F710509F0D6
:1038500018F56136710510F0B49606C06134710533
:1038600038F0F901EA59FF4F20813181820F931F0F
:103870009C012F5F3F4FF9014491442351F1FC011A
:10388000449150E04617570711F402960895F90144
:103890002491820F911DECCFF901E659FF4F208151
:1038A0003181820F931FFC01249130E0322F2227B7
:1038B0003196E4912E2B2115310559F02617370743
:1038C00011F403960895FC013296E4918E0F911D38
:1038D000EACF80E090E008950F931F93CF93DF939A
:1038E0008C01EC01C85BDF4F798368831886FC018B
:1038F000E75AFF4F6081CE010E94411A8E83F80182
:10390000E65AFF4F6081CE010E94411A8F83F80171
:10391000EF58FF4F90819A8781E0911180E08B876B
:10392000DF91CF911F910F910895CF93C62F0E94E1
:10393000411AC15021E030E001C0220FCA95EAF7D8
:10394000821BCF9108956F927F928F929F92AF9238
:10395000BF92CF92DF92EF92FF920F931F93CF937C
:10396000DF931F92CDB7DEB73C01062F142F7901EC
:10397000FC01EC5AFF4F80818130C9F070F0823039
:1039800001F1833039F5F301EA5BFF4F0190F081DB
:10399000E02DC3010995080F1DC0F301EA5BFF4F3D
:1039A0000190F081E02DC3010995180F13C0F301B8
:1039B000EA5BFF4F0190F081E02DC3010995081BE0
:1039C00009C0F301EA5BFF4F0190F081E02DC301D4
:1039D0000995181BF301E65BFF4F008331961083B6
:1039E000B701C3010E941E1C009709F49CC073011B
:1039F00028E4E20EF11CBC01C3010E946C1CF3011F
:103A0000E15BFF4FD0803C966081C7010E94951C0E
:103A1000A82EF301E45AFF4F6081C7010E94951C54
:103A2000C82EF301E35AFF4F6081C7010E94951C25
:103A3000B82EF701068110160CF073C09485CD0CDA
:103A4000C194292F4C2D6A2D828199830E94271AB7
:103A5000182FF70182839981292F4C2D6A2D83819C
:103A60000E94341A482FF70183839981913091F095
:103A700060F09230A1F09330E9F4212F2D0D801BDE
:103A800001E0040F41E0480F17C0212F200F082F3D
:103A90000D0D12C09D1921E0210F080F09C081E012
:103AA000982F901B21E0210F8D1901E0040F480F82
:103AB000190F02C0082F212F612FC3010E946F141C
:103AC000882379F1F701148215828301095A1F4F67
:103AD0004301F8E58F0E911CF8016081C7010E9437
:103AE000411AA82EF4016081C7010E94411AC82E14
:103AF00040E06A2DC3010E94B11B41E06C2DC3015F
:103B00000E94B11B61E0C7010E94411A8111F0CFF0
:103B1000F70185818D1504F3D301AF58BF4F82851E
:103B20008C938B2D01C080E00F90DF91CF911F917E
:103B30000F91FF90EF90DF90CF90BF90AF909F904C
:103B40008F907F906F9008950F931F93CF93DF9383
:103B5000EC018C010C5F1F4FFC01E958FF4F0190F5
:103B6000F081E02DC80109958E3F2FEF920780F478
:103B7000FE01E658FF4FC758DF4F9C014081688126
:103B8000C8010E94A31C288190E0820F911D8883A8
:103B900081E090E0DF91CF911F910F910895FC019A
:103BA000E60FF11D849190E0982F88273196E491DB
:103BB0008E0F911D0895DC01D8966C93D897D396FB
:103BC000ED91FC91D4970190F081E02D09940F9331
:103BD0001F93CF93DF931F92CDB7DEB78C010E9466
:103BE0006F1AD801D8966C91D897D7968C91D797A1
:103BF000680FED91FC9111978189681760F0149618
:103C0000ED91FC91159720E030E040E060E1C801C3
:103C1000099580E00FC0F801EE58FF4F808188239E
:103C200029F0C80169830E940A1C6981C8010E94A9
:103C3000DB1D81E00F90DF91CF911F910F910895CF
:103C4000CF93DF93EC01FC01EE58FF4F8081882376
:103C500019F0CE010E940A1C60E0CE01DF91CF91E5
:103C60000C94DB1D1F920F920FB60F9211242F930D
:103C70003F934F935F936F937F938F939F93AF93F4
:103C8000BF93EF93FF938091B900887F803609F44A
:103C90009CC068F5883209F45BC090F4803109F467
:103CA00054C038F4882309F4F6C0883009F44DC0B4
:103CB000F6C0883109F44CC0803209F45DC0EFC011
:103CC000803409F468C048F4803309F455C088335F
:103CD00009F0E5C08093E602D8C0803509F44FC0F2
:103CE000883509F45DC0883409F0D9C0D6C0883958
:103CF00009F4C7C0A8F4883709F467C038F48836D7
:103D000009F463C0803709F460C0C9C0883809F479
:103D1000B8C0803909F45FC0803809F0C0C05BC00A
:103D2000803B09F486C038F4803A09F466C0883ACA
:103D300009F47FC0B4C0803C09F4A7C0883C09F4F2
:103D4000A4C0883B09F48AC0AAC08091C30210C0F5
:103D50009091E5028091E402981770F5E091E502F8
:103D600081E08E0F8093E502F0E0EC53FD4F8081FF
:103D70008093BB0085EC86C08093E6028EC0E09104
:103D8000E50281E08E0F8093E5028091BB00F0E0B8
:103D9000EC53FD4F80839091E5028091E4026EC068
:103DA000E091E50281E08E0F8093E5028091BB00F7
:103DB000F0E0EC53FD4F80838091E70281116DC0EC
:103DC00081E08093C20284EA61C083E08093E802CC
:103DD00010928703CFCF80918703803208F051C0C3
:103DE000E091870381E08E0F809387038091BB0071
:103DF000F0E0E959FC4F8083BDCF85EC8093BC0097
:103E00001092E80280918703803230F4E0918703BA
:103E1000F0E0E959FC4F10826091870370E0E09177
:103E20006503F091660387E693E009951092870396
:103E300036C084E08093E80210926403109263031A
:103E4000E0916103F0916203099580916303811110
:103E500005C081E08093630310924103E091640305
:103E600081E08E0F80936403F0E0EF5BFC4F808174
:103E70008093BB009091640380916303981708F4CA
:103E800079CF85E88093BC000AC085EC8093BC00A4
:103E90001092E80204C01092E6020E94F41AFF9108
:103EA000EF91BF91AF919F918F917F916F915F91B2
:103EB0004F913F912F910F900FBE0F901F9018952B
:103EC0000C94D03160E070E08CE595E40E9494237E
:103ED0006CE57FEF83E495E40E94942362E570ED46
:103EE00084E295E40E94942360E070ED82E095E422
:103EF0000E9494236FE175ED82E195E40E94942382
:103F00006FE171EF86E795E40E94942368E47DE910
:103F10008EE295E40E94942364E170ED82E895E4DA
:103F20000E94942360E070E08CE595E40E94942365
:103F30006CE57FEF83E495E40E94942362E570EDE5
:103F400084E295E40E94942360E070ED82E095E4C1
:103F50000E9494236FE175ED82E195E40E94942321
:103F60006FE171EF86E795E40E94942368E47DE9B0
:103F70008EE295E40E94942364E170ED82E895E47A
:103F80000C949423DF92EF92FF920F931F93CF93A1
:103F9000DF93EC01162F972F862F64E670E00E94C6
:103FA0009034062FD62E84E6689F10191124CE0176
:103FB0000E94601F803821F060E8CE010E94D83155
:103FC0007E018FEFE81AF80AC7010E94601F8D1565
:103FD00021F0602FC7010E94D8312296CE010E94A5
:103FE000601F811759F0612FCE01DF91CF911F9192
:103FF0000F91FF90EF90DF900C94D831DF91CF912B
:104000001F910F91FF90EF90DF900895CF93DF9372
:104010006CE370E00E949034EC01072E000C880BDA
:10402000990B0E947A228BE39FE10E940022BE013D
:10403000DD0F880B990B0E947A228DE29FE1DF91C0
:10404000CF910C940022E091A803F091A903019074
:10405000F081E02D682F88EA93E00994EF92FF92B7
:104060000F931F93CF93DF939091A4039F3F39F455
:104070008EBD00000DB407FEFDCF8EB528C0D82F31
:1040800007E010E0C0E0EE24E394F12CCC0F61E0F7
:104090008091A4030E94E518B701002E01C0660FAD
:1040A0000A94EAF76D238091A6030E94E51860E068
:1040B0008091A4030E94E5188091A5030E94BC187A
:1040C000892B09F0C1600150110900F78C2FDF9195
:1040D000CF911F910F91FF90EF900895FF920F9352
:1040E0001F93CF93DF93162FF72E042FC82FCF7770
:1040F0008091A4038F3F39F48091960390919703A8
:104100000E943C1303C060E00E94E51860E08091CB
:10411000A7030E94E5188C2F0E942E20C12FDF2DAF
:10412000100F1C1729F08FEF0E942E208993F9CFD2
:104130008091A4038F3F11F40E943B1361E08091B2
:10414000A703DF91CF911F910F91FF900C94E51879
:10415000BF92CF92DF92EF92FF920F931F93CF9374
:10416000DF93D82FB62E142F6901C9010E94531373
:10417000F82EC0E0CF1579F0B6018C2F0E943F13C6
:10418000E12C00E09C014B2D6D2F80E00E94152753
:10419000D10FCF5FEFCFC19F802D1124DF91CF9141
:1041A0001F910F91FF90EF90DF90CF90BF900895F7
:1041B0003F924F925F926F927F928F929F92AF92B7
:1041C000BF92CF92DF92EF92FF920F931F93CF9304
:1041D000DF935C016B014A01109200048FE991E1C9
:1041E0009093F3038093F2031091190480911A04C1
:1041F000D12FD81BC5010E945313C114D10411F44F
:10420000C1E001C0C2E0C80FC4010E9453138C0F6B
:104210008D9FC02D1124CD5F8091EB03C81720F432
:10422000F82EFC1AF69401C0F12CF10EC0E08CE3DC
:10423000682E80E1782E8CEA93E00E94201E950182
:104240004D2F6091EA038F2D0E94A820182F1F0D7B
:10425000C114D10451F0E12C00E096014091EA0331
:10426000612F80E00E9415271D0F94014D2F609152
:10427000EA03812F0E94A820810F13E0180F0091FC
:10428000EA0388E892E00E945313582E412C312C07
:10429000451471F068E872E0842D0E943F1370921B
:1042A000AF036092AE030E94C626380E4394F0CF4F
:1042B000252D30E021503109822F880F280F220F41
:1042C000230D201720F4021B402E469401C0412CE0
:1042D000312C3514F9F068E872E0832D0E943F1309
:1042E000EE24E3943C12E12C01E09C0140E0612FBC
:1042F000842D0E94152768E872E0832D0E943F13E9
:104300007092AF036092AE030E94C6268A5F480E89
:104310003394DFCF8CEA93E00E94E71D182F8111C0
:104320008ECF052D0E946F26982F803519F411E04D
:104330001C0F14C0833591F08B7F813531F4CF5F32
:10434000C51508F478CFC0E076CF923511F09435DA
:1043500049F7C1110C2FCFEFC00F6DCF812FDF9127
:10436000CF911F910F91FF90EF90DF90CF90BF9072
:10437000AF909F908F907F906F905F904F903F9005
:104380000895CF93C82F8091A4038F3F39F4809173
:104390009603909197030E943C1303C060E00E9433
:1043A000E51860E08091A7030E94E51880E80E946C
:1043B0002E208C2F0E942E208091A4038F3F11F479
:1043C0000E943B1361E08091A703CF910C94E51804
:1043D000CF93DF931F92CDB7DEB7198241E0BE01C4
:1043E0006F5F7F4F0E946E2089810F90DF91CF9188
:1043F000089580E00E94E821837D82600C94C121B1
:104400000F931F93CF93DF938C01C0E0D0E0F801AE
:10441000EC0FFD1F6491662371F0E091A803F09109
:10442000A9030190F081E02D88EA93E00995892B9A
:1044300011F02196ECCFCE01DF91CF911F910F911A
:104440000895BC01009791F0FC0101900020E9F76C
:104450003197AF01481B590BE091A803F091A903D4
:104460000280F381E02D88EA93E0099480E090E0F7
:1044700008958F929F92AF92BF920F931F93CF9305
:10448000DF93CDB7DEB7A1970FB6F894DEBF0FBEAE
:10449000CDBF19A2423008F44AE08E010F5D1F4FD4
:1044A000842E912CA12CB12CA50194010E94A4343E
:1044B000E62FB901CA0101501109EA3014F4E05D98
:1044C00001C0E95CD801EC93232B242B252B61F749
:1044D000C8010E942122A1960FB6F894DEBF0FBE3C
:1044E000CDBFDF91CF911F910F91BF90AF909F9063
:1044F0008F900895CF92DF92EF92FF92CF93DF9348
:1045000097FF19C06B017C018DE20E942320EC0112
:1045100066277727CB016C197D098E099F094AE030
:104520000E9439228C0F9D1FDF91CF91FF90EF9059
:10453000DF90CF9008954AE0DF91CF91FF90EF9008
:10454000DF90CF900C9439224F925F926F927F92BE
:104550008F929F92AF92BF92CF92DF92EF92FF9293
:104560006B017C01B42E9B01AC010E946A3488234C
:1045700019F08BE992E027C026013701E89477F81B
:104580002FEF3FEF4FE75FE7C301B2010E946A34AC
:1045900081110DC02FEF3FEF4FE75FE7C301B2017D
:1045A0000E94533218161CF48FE992E00CC02FEFD2
:1045B0003FEF4FE75FE4C701B6010E94B233181620
:1045C00084F483EA92E0FF90EF90DF90CF90BF9069
:1045D000AF909F908F907F906F905F904F900C94D2
:1045E00021222FEF3FEF4FE75FECC701B6010E949A
:1045F000533287FDE6CF20E030E0A901C701B601C4
:104600000E94533287FF09C08DE20E9423204C0193
:10461000F7FAF094F7F8F09402C0812C912CA12CB9
:1046200060E070E080E09FE3AB1441F020E030E018
:1046300040E251E40E945832A394F6CF9B01AC01B2
:10464000C701B6010E94E7312B013C010E94D13223
:104650006B017C010E9400339B01AC01C301B201DC
:104660000E94E6312B013C014AE0C701B6010E94DD
:1046700039227C01E80CF91CBB2029F08EE20E9453
:104680002320E80EF91EDB2CDD2021F120E030E0B4
:1046900040E251E4C301B2010E94B7332B013C0157
:1046A0000E94D1324B01A12CB12C4AE0C501B401CA
:1046B0000E943922E80EF91EC501B4010E940033A0
:1046C0009B01AC01C301B2010E94E6312B013C0108
:1046D000DA94DACFC701FF90EF90DF90CF90BF90D0
:1046E000AF909F908F907F906F905F904F900895C4
:1046F0000F93CF93DF93C82FD62F01E0080F262FFB
:10470000482F60E08CEA93E00E946F14882341F008
:1047100000E02D2F4C2F60E08CEA93E00E9495146E
:10472000DF91CF910F9108954F925F926F927F9298
:104730008F929F92AF92BF92CF92DF92EF92FF92B1
:10474000CF93DF939B01AC0160E074E284E799E4CE
:104750000E9458326B017C019B01AC010E94E73141
:104760009B01AC0160E070E08AE794E40E9458325B
:1047700020E030E048EC52E40E94B7332B013C01CA
:10478000C0E0D0E0BE010D2E000C880B990B0E94FA
:104790000233A30192010E94533287FF16C061E0E9
:1047A00088E00E94E518C701B6010E94D1324B0192
:1047B0005C01CB010E94511960E088E00E94E5187D
:1047C000C4010E9451192196DDCFDF91CF91FF9056
:1047D000EF90DF90CF90BF90AF909F908F907F90A1
:1047E0006F905F904F900895EF920F93CF93DF9368
:1047F000D62FC0911904CF5F90911A04C91B01E014
:10480000481300E060ED71E0842F0E943F13009791
:1048100011F487EB91E04091EA034250E02E9C01B5
:104820006D2F81E00E9415278C2FDF91CF910F9182
:10483000EF9008954F925F926F927F928F929F9226
:10484000AF92BF92CF92DF92EF92FF920F931F939E
:10485000CF93DF9300D0CDB7DEB76B017C010E9410
:10486000F92180E00E94E82180680E94C1216AE06D
:1048700070E080E090E00E945C1980E00E94E821F6
:1048800080620E94C12161E470E080E090E00E94BB
:104890005C1919821A8242E0BE016F5F7F4F81E08E
:1048A0000E946E20898190E0982F88272A81822B90
:1048B00096958795BC0180E090E00E94003320E04F
:1048C00030E040E058E30E94B73320E030E847EDA5
:1048D00053E40E94B7332B013C01A70196016FE717
:1048E00075E08BE196EB0E945832A30192010E9481
:1048F000B73326E133E843E957E30E94E7310E94EA
:104900002A3422E331E140E85BE30E94E6312FE7FD
:1049100035E04BE955EB0E9458325B018C0120E0F9
:1049200030E0A9010E94B23387FF72C0A70196014F
:10493000C301B2010E94583220E030E048EC52E45A
:104940000E94B7336B017C012BE532E44EE050E46A
:104950000E94B7332FE135E042E753EC0E94E73184
:104960004B015C01A7019601C701B6010E94B73354
:104970002B013C0124E338E749E25BE30E94B733B3
:104980009B01AC01C501B4010E94E7314B015C0100
:10499000A7019601C301B2010E94B7332B013C016C
:1049A00026E03FEE41EA56E30E94B7339B01AC019B
:1049B000C501B4010E94E6314B015C01A7019601DB
:1049C000C301B2010E94B7332B013C0123E137E15F
:1049D00042EF52E30E94B7339B01AC01C501B40121
:1049E0000E94E6314B015C01A7019601C301B201AF
:1049F0000E94B7332BE339E947E25FE20E94B73305
:104A00009B01AC01C501B4010E94E7315B018C013F
:104A1000B501C8010F900F90DF91CF911F910F91B9
:104A2000FF90EF90DF90CF90BF90AF909F908F90CE
:104A30007F906F905F904F9008959B01DC011896D6
:104A4000ED91FC91199741E067E10994FC01809197
:104A50008903811103C08FEF9FEF08959FB7F894EA
:104A600082E08093E9002091F20030E012161306F4
:104A700014F421E030E02115310559F0289884E63E
:104A8000809388038091F10080838091F2008823D5
:104A900019F09FBFC90108958BE68093E800F9CF14
:104AA0002FB7F89483E08093E9009091E800892F74
:104AB000807295FF04C09091F20080E4891B2FBFA3
:104AC000089580918E0381110DC082E080938A0346
:104AD00084E080938B0310928D0310928C0381E00D
:104AE00080938E038AE893E00895833008F081E094
:104AF00080931D040895FF920F931F93CF93DF932C
:104B0000C82FD62F1092C1038A01F12CF8016191B0
:104B10008F01E091AE03F091AF038CEA93E0099529
:104B20008F3FFFEF9F07E9F08E3F2FEF920771F362
:104B30009C014D2F6C2F8CEA93E00E94A31C2091C6
:104B40000004213049F030F0223041F0233039F4B4
:104B5000D81B05C0C80F03C0D80F01C0C81BF80E72
:104B6000D5CF8F2DDF91CF911F910F91FF90089599
:104B7000CF93DF932091F0033091F1032817390789
:104B800009F4AAC0EC019093F1038093F003FC01B7
:104B90008491809301043196E491E0930204FE0134
:104BA0003296E491E0930304FE013396E491E0939E
:104BB0000404FE013496E491E0930504FE01359669
:104BC000E491E0930604FE013696E491E093070435
:104BD000FE013796E491E0930804FE013896E491D3
:104BE000E0930904FE013996E491E0930A04FE0182
:104BF0003A96E491E0930B04FE013B96E491E09336
:104C00000C04FE013C96E491E0930D04FE013D96F8
:104C1000E491E0930E04FE013E96E491E0930F04CC
:104C2000FE013F96E491E0931004FE017096E4913A
:104C3000E093110461E1CE010E94CF1D9093130413
:104C40008093120463E1CE010E94CF1D909315045E
:104C50008093140465E1CE010E94CF1D9093170448
:104C6000809316048091F0039091F103892BA1F1B8
:104C700080910E048093190440910F0440931A040C
:104C800090911804992341F1913069F490911004A6
:104C9000891714F490931904809111048417E4F493
:104CA00080931A0419C030910B0420910D04082E32
:104CB000000C990B622F022E000C770B630F711DF5
:104CC00037FD7A95861797071CF4320F3093190435
:104CD000241714F420931A04DF91CF9108951F93A1
:104CE000CF93DF93D0E5CFEF11E01093C20340E004
:104CF0006D2F8CEA93E00E9460138091C203817053
:104D0000CC0FC82BDF5FD63581F78091C50380318A
:104D100079F018F4882331F031C08032A1F080336B
:104D2000C1F02CC08091C3038C1759F182E127C0D8
:104D30008091C3038C1303C01092C50322C0C0939B
:104D4000C40382E21CC08091C4038C13F5CF80E3BE
:104D500016C08091C3038C1314C01092C503209118
:104D6000C40386E091E0C2278150292F2C2321F42F
:104D7000990F8111F9CF86E0805B04C08150809348
:104D8000C50380E0DF91CF911F9108950F931F938A
:104D9000CF93DF931092FA031092C1038C01D0E0FD
:104DA000C0E0F80161918F01E091AE03F091AF0393
:104DB0008CEA93E00995BC01019641F16E3F8FEFBB
:104DC000780779F38CEA93E00E941E1C0097D1F0DB
:104DD000BC018CEA93E00E946C1C6091070484EF94
:104DE00093E00E94951C80931B046091080484EF5B
:104DF00093E00E94951C6091090484EF93E00E9467
:104E0000951C01C080E0D82FC80FCBCF9091FA033A
:104E1000992329F080911B04890FC80FCD1B8C2F7B
:104E2000DF91CF911F910F9108952F923F924F9252
:104E30005F926F927F928F929F92AF92BF92CF922A
:104E4000DF92EF92FF920F931F93CF93DF9300D0E7
:104E50001F92CDB7DEB78B83762E5901602E10924C
:104E60000004E091F203F091F3038CEA93E04A83AB
:104E70000995780E8CE390E19093AF038093AE0395
:104E8000C5010E94C626182F4A81841728F4842E53
:104E9000881A8694142F01C0812C90901904C72C75
:104EA000C91880911A04981A81E00E947525DB8048
:104EB000D10EFC2CF90CE11008C02D2C8B81861929
:104EC0008983D12E3B81C31A55C00F2D2D2D4C2D1A
:104ED0006B818CEA93E00E946F14882371F35C2C41
:104EE0005F1459F300E0212F452D6B818CEA93E08C
:104EF0000E9495145394F4CF31506C2C630ED394CC
:104F0000D394592C5D0C511A332433943F0C442410
:104F10004394420C032D242D462D632F8CEA93E0FD
:104F20003A830E946F143A81882311F100E02D2DFD
:104F3000462D632F8CEA93E00E94951401E0252D05
:104F4000462D3A81632F8CEA93E00E949514252D1B
:104F5000462D622D8CEA93E00E94951400E02D2DE1
:104F60004F2D3A81632F8CEA93E00E9495143A8189
:104F7000F32C242C89813813BFCFEE2011F080E070
:104F800001C081E00E9475258CE390E19093AF030E
:104F90008093AE03A501672D8B81880D0E947B2530
:104FA00081E00F900F900F90DF91CF911F910F91A3
:104FB000FF90EF90DF90CF90BF90AF909F908F9039
:104FC0007F906F905F904F903F902F900C9475253D
:104FD0001F920F920FB60F9211242F933F938F932E
:104FE0009F93AF93BF9380910D0390910E03A09177
:104FF0000F03B09110033091F30423E0230F2D37FA
:1050000020F40196A11DB11D05C026E8230F0296CC
:10501000A11DB11D2093F30480930D0390930E0303
:10502000A0930F03B093100380911103909112038A
:10503000A0911303B09114030196A11DB11D80939B
:10504000110390931203A0931303B0931403BF9121
:10505000AF919F918F913F912F910F900FBE0F9025
:105060001F901895CF93DF93CDB7DEB7EE970FB6AD
:10507000F894DEBF0FBECDBF789484B5826084BD46
:1050800084B5816084BD85B5826085BD85B581604C
:1050900085BD80916E00816080936E0010928100CA
:1050A0008091810082608093810080918100816085
:1050B0008093810080918000816080938000809146
:1050C0009100826080939100809191008160809333
:1050D0009100809190008160809390008091C10048
:1050E00084608093C1008091C10082608093C10080
:1050F0008091C10081608093C1008091C300816074
:105100008093C3008091C00082608093C000809132
:10511000C20081608093C20080917A008460809395
:105120007A0080917A00826080937A0080917A0080
:10513000816080937A0080917A00806880937A0001
:105140001092890310921603109217038091D700D2
:1051500081608093D70080EA8093D80089B5806110
:1051600089BD89B5826089BD09B400FEFDCF61E0CB
:1051700070E080E090E00E945C198091D8008F7C04
:1051800080618093D8008091E000807F8093E00070
:105190008091E1008E7E8093E1008DE08093E200BB
:1051A000559A209AEEEFFFE7859194918B3F9C4DA5
:1051B00019F481E08093150380E090E00E94601F65
:1051C000803861F581E090E00E94601F082F82E046
:1051D00090E00E94601F182F602F70E080E090E048
:1051E0000E9400336B017C01612F70E080E090E051
:1051F0000E94003320E030E048EC52E40E94583234
:105200009B01AC01C701B6010E94E7316093010127
:1052100070930201809303019093040183E090E076
:105220000E94601F8038A9F484E090E00E94601F13
:10523000182F85E090E00E94601F282F30E0C90100
:1052400044E6149F800D911D11249093AC0280932D
:10525000AB0262E085E00E94151962E086E00E94E0
:10526000151962E084E00E94151962E087E00E944F
:10527000151961E088E00E94151985E08093D70335
:1052800086E08093D80384E08093D9038FEF8093E6
:10529000DB038093DC0387E08093DA03E091B003C3
:1052A000F091B10320E030E040E06AE08CEA93E066
:1052B00009958CEA93E00E94201E8CEA93E00E94FC
:1052C000E71D8111FACF60E08CEA93E00E94DB1DBC
:1052D000E091B003F091B10320E030E040E06BE0FA
:1052E0008CEA93E009958CE390E1909320048093FD
:1052F0001F0461E08091A7030E94151961E080916D
:10530000A7030E94E5188091A4038F3F99F061E004
:105310000E94151960E08091A4030E94E51861E0E5
:105320008091A6030E94151960E08091A5030E9458
:10533000151933C01FB7F8948091A802811127C0B6
:10534000ECE6FEE18491EBE8FEE19491E82FF0E0D9
:10535000EE0FFF1FEF5CF14EA591B491EC91E923A4
:1053600021F461E081E10E94E51861E081E10E94A1
:1053700015198CB580618CBD8CB580648CBD61E0E5
:105380008FE00E94151961E080E10E94151980915B
:10539000A8028F5F8093A8021FBF80E00E94E821CF
:1053A00080610E94C12180E00E94E8218F770E94E5
:1053B000C12180E00E94E8218F7B0E94C1210E94D0
:1053C000F92174EF272E3324339487E00E94E821DB
:1053D000182F882309F4A7C08CEA93E00E94201EAE
:1053E00017FF03C068E2D62E02C050E2D52E08E0B7
:1053F0000D0D512F50745FAB16FF0D2D88E0800FFF
:10540000912F9072492E15FF02C0F82E01C0F02E88
:1054100088E08F0D212F20712BAF14FF02C0E82EE2
:1054200001C0EF2C88E08E0D512F58705CAF13FF38
:1054300002C0C82E01C0CE2C812E912CA12CB12CE3
:1054400038E1732E40E2642E812F8470582E86EA54
:1054500094E00E94B8251092210498E090932204D1
:1054600082E691E00E94002210922104E0E1E093A4
:1054700022048DE591E00E94002240E1C501B401C3
:105480000E943922109221047092220417FF08C052
:105490008AE491E00E94002210922104609222048A
:1054A0002FA9222341F088E391E00E94002210926C
:1054B0002104D0922204442041F083E291E00E9432
:1054C000002210922104009322045BAD552341F089
:1054D00080E091E00E94002210922104F0922204C8
:1054E0002CAD222341F08DED90E00E94002210921D
:1054F0002104E0922204552041F08AEC90E00E94C1
:10550000002210922104C09222048CEA93E00E94AF
:10551000E71D81119CCF0E94F92160ED77E080E0CA
:1055200090E00E945C198091B802811119C06091CD
:1055300001017091020180910301909104010E9488
:105540001A2420E030E048EC52E40E94B7330E9475
:10555000CA327093B7026093B60281E08093B802BA
:105560006091010170910201809103019091040109
:105570000E941A2420E030E048EC52E40E94B73345
:105580000E94CA326FAB78AF89AF9AAF0FA918AD3E
:105590004090B2025090B3026090B4027090B50295
:1055A0008091B6029091B702B801681B790B072E63
:1055B000000C880B990B0E940233A30192010E94F8
:1055C000E6314B015C012DEC3CEC4CEC5DE30E94C0
:1055D000B7336B017C019B01AC01C301B2010E9496
:1055E000E7316093B2027093B3028093B402909358
:1055F000B5026091AE027091AF028091B0029091BD
:10560000B1029B01AC010E94B7332B013C01A50103
:105610009401C701B6010E94B7339B01AC01C301DD
:10562000B2010E94E73126E636E646E65FE30E94D5
:10563000B7330E942A346093AE027093AF02809316
:10564000B0029093B1021093B7020093B6028CEAB5
:1056500093E00E94201E2BE0822E2801012E000CD8
:10566000660877088091AD028823A1F081E890E177
:105670009093AF038093AE0381EB91E00E94C62626
:105680009FE7981B909321048092220481EB91E084
:105690000E94212288E198E00E94B82510922104FE
:1056A00080922204C301B2010E94023320E030E064
:1056B00048EC52E40E9458326B017C0142E00E94A7
:1056C000A4228FE994E00E94002220E030E048EC20
:1056D00052E46091B2027091B3028091B402909151
:1056E000B5020E94583242E00E94A4221092210486
:1056F000E6E1E093220426E636E646EE5FE3C701E4
:10570000B6010E94B73320E030E040E052E40E944E
:10571000E73142E00E94A42288E994E00E9400223E
:1057200020E030E048EC52E46091B2027091B302A4
:105730008091B4029091B5020E94583226E636E676
:1057400046EE5FE30E94B73342E00E94A42260E885
:1057500087E10E947823209100018EEF820F843030
:1057600008F0ADC06091B2027091B3028091B402B2
:105770009091B5022DAF0E94CA326B012DAD22303F
:1057800041F443E053E05093AA024093A9022BE076
:1057900019C0233039F48CE792E09093AA028093E9
:1057A000A9020FC0243039F4E0E1F2E0F093AA023C
:1057B000E093A90207C049E851E05093AA02409340
:1057C000A90225E0912CA22EB12C51E0A51AB10816
:1057D00093948BE1989E700111246091A9027091BD
:1057E000AA026E0D7F1D4BE150E0CE0101962DAF58
:1057F0000E94C7318A8D9B8D2DAD80179107ACF02B
:105800009BE1E91AF1086091A9027091AA026E0D5C
:105810007F1D4BE150E0CE014C962DAF0E94C73169
:105820002DAD1C141D043CF014C0892D90E08A1588
:105830009B0574F2E5CF30E0892D90E08217930745
:1058400044F48A8D9B8D801B910BB6010E9490348D
:1058500002C06FEF7FEF86EA94E06DAF7EAF0E94EB
:10586000B825109221048FE180932204CE014C963A
:105870000E9421226DAD7EAD6F3FEFEF7E0751F0AC
:105880001092210487E280932204CB010E9406201B
:105890002FE201C027E210922104209322048FE618
:1058A00091E02DAF0E940022109221042DAD285FBF
:1058B00020932204CE0101960E942122C9C02630E5
:1058C00009F0A3C0C090B202D090B302E090B4023D
:1058D000F090B50286EA94E00E94B8258091AD026E
:1058E000882309F43FC0C701B6010E94CA32109252
:1058F00021048FE1809322041616170674F4209178
:10590000AB023091AC0244E6429FC001439F900D30
:105910001124081719078CF028C06115710529F1A9
:105920002091AB023091AC0244E6429FC001439FFC
:10593000900D112480179107C4F42091AB0230918F
:10594000AC0244E6429FC001439F900D1124801B8E
:10595000910B0E949034CB016F3F7F4F31F00E943A
:10596000062003C09FE1F92E02C08FE2F82E1092AC
:105970002104F092220485E594E00E9400226091C7
:10598000AB027091AC02072E000C880B990B0E94A1
:105990007A228EE494E00E9400226091AB02709122
:1059A000AC02072E000C880B990B0E94023326E6EE
:1059B00036E646EE5FE30E94B73320E030E040E099
:1059C00052E40E94E7310E94CA32072E000C880B75
:1059D000990B0E947A228AE494E00E94002285EBCF
:1059E00091E00E9421221092210488E08F0D809383
:1059F00022048091AD02882319F08DE394E002C067
:105A00008CE294E00E94002223C0273009F586EA48
:105A100094E00E94B825109221048FE18093220423
:105A20008DE694E00E9400221092210487E2809388
:105A3000220483E694E00E940022609101017091AB
:105A40000201809103019091040142E00E94A4228E
:105A50008CEA93E00E94E71D811104CE6091B202AE
:105A60007091B3028091B4029091B5022091AD0281
:105A7000222309F456C02DAF0E94CA322DAD16164E
:105A8000170674F44091AB025091AC0234E6349F97
:105A9000C001359F900D1124081719078CF02FC0F5
:105AA0006115710561F14091AB025091AC0234E691
:105AB000349FC001359F900D112480179107FCF48D
:105AC0004091AB025091AC0234E6349FC001359F47
:105AD000900D11244FA958AD841B950B0E94903452
